:020000040800F2
:10000000B80E0020E5A50008F9A3000801A4000827
:1000100003A4000805A4000807A4000800000000CD
:1000200000000000000000000000000009A400081B
:100030000BA40008000000000DA400080FA4000895
:10004000FDA5000801A6000805A6000809A60008ED
:100050000DA6000811A6000815A6000813A40008A4
:1000600019A4000819A600081DA6000821A600086A
:100070001FA4000825A400082BA4000831A4000830
:1000800037A400083DA4000825A6000829A60008FA
:1000900043A400082DA6000845A4000831A60008C6
:1000A00035A6000839A600083DA6000841A60008AC
:1000B00045A60008000000000000000049A6000856
:1000C0004DA600084DA4000851A6000855A600083A
:1000D00059A600085DA6000861A6000865A60008EC
:1000E00069A600086DA600080000000000000000DE
:1000F0000000000000000000000000000000000000
:100100000000000071A600080000000075A60008AD
:10011000000000000000000079A600087DA600088D
:1001200081A6000885A6000889A600088DA60008FB
:1001300091A6000800000000000000000000000080
:1001400095A6000853A4000899A600080000000026
:1001500059A400085FA400089DA60008A1A60008F5
:10016000A5A60008A9A60008ADA60008000000008A
:10017000B1A60008B5A600080000000000000000BD
:10018000B9A60008BDA60008C1A6000800F5E070E9
:100190000268914203D280680028F9D17047436811
:1001A0001A449142F7D270471749086880B94FF452
:1001B000805048604FF480324FF0FF30C8600861D3
:1001C0000420124B8A604861C3F8BC0110480860E3
:1001D0000120704701F1080313F0070F0EBF002341
:1001E000C3F1080303F007031944D21A8161C26006
:1001F00042F001034B60091D4FF0280C41F802C08A
:10020000014A1369C36170473C0A0020D4020020F0
:100210006859883C2DE9F84F84B00646AFF300805A
:10022000F52E1E4D80F013820B2E31BF10260B369B
:10023000F608F6002868F408E04010F0030F4AD0F2
:10024000C04300F00100041905F1280000EBC408C8
:10025000E700D8F808607068C008C000B84218BF4E
:1002600001F01EFAD6F80890464508BF01F018FACA
:100270004E4508BF01F014FA7068C008C000B842CB
:1002800018BF01F00DFAC8450AD12868012101FA0A
:1002900004F420EA04042C6010E000BFD402002023
:1002A0002869814508D3D9F80C10B14204D1C8F8A7
:1002B0000890C9F80C8001E001F0F2F947F0030062
:1002C000311D7060301DCA5942F00102C25106F161
:1002D000080800F024BFA968B14280F0AA83002872
:1002E00000F0A2804FF0010808FA04F1490000FA7A
:1002F00004F4484201430C4060420440641E200B59
:1003000000F01000C440610901F00801CC40A208CF
:1003100002F00402D440630803F002030818DC4032
:100320001018C4F3400718183818FC40241805F1B9
:10033000280000EBC40AE700DAF80890D9F80400B6
:10034000C008C000B84218BF01F0AAF9D9F808B037
:10035000D14508BF01F0A4F9D94508BF01F0A0F9C3
:10036000D9F80400C008C000B84218BF01F098F9DD
:10037000DA4506D1286808FA04F420EA04042C605F
:100380000DE029698B4508D3DBF80C00484504D102
:10039000CAF808B0CBF80CA001E001F081F9BF1B4E
:1003A00046F0030009F10402C9F8040047F0010116
:1003B000915109EB06020192D751AC684FEAD40A79
:1003C000BAF11F0F88BF01F06BF934B3CDF800A06C
:1003D00005F128006E6900EBCA0AD346102C38BF1D
:1003E00001F05EF92968009821FA00F2D30704D4DD
:1003F00008FA00F00843286007E0DAF808002969E5
:1004000088422CBF834601F04BF9CAF80860CBF84C
:100410000C60C6F808B0C6F80CA0AF6009F1080877
:100420000198686100F07BBE6868002800F02383B3
:1004300041420840401E010B01F01001C840420932
:1004400002F00802D040830803F00403D8404408B7
:1004500004F002045118E0405918C0F34007611835
:1004600005F598787918F840401858F82010486831
:10047000C008C0008A46A0EB060B08E001464868A9
:10048000C008C000801B58453CBF83468A460869A7
:100490000028F3D149690029F1D128698245C0F0CB
:1004A000D380DAF80410C90806EB0B09C9004945E6
:1004B00018BF01F0F5F80AEB06008245019080F0C4
:1004C000C380DAF80C40DAF8187054450DD0DAF829
:1004D00008002969884223D3C268524504BFA16835
:1004E00051451DD1C460A0601CE00AF114010C68E4
:1004F00034B90AF110010C68A4B101E011460C688E
:1005000004F114021068002802BF04F11002106800
:100510000028F3D12869814202D300220A6001E059
:1005200001F0BEF8002F38D0DAF81C0008EB80018B
:100530000A6892450AD11CBB6A68012303FA00F0DD
:1005400022EA000068600020086026E029698F42E6
:1005500013D33869504514BF7C613C61ECB1296903
:100560008C4218D3A761DAF8100058B1884226BF30
:100570002061846101F094F804E001F091F8EDE766
:100580000C60ECE7DAF8140038B12969884202D32C
:100590006061846101E001F083F8BBF1100F0ED2BD
:1005A00049F003000AF10401CAF804000AF104004A
:1005B00051F8092042F0010240F809203EE046F0DF
:1005C00003010AF10402CAF804104BF00100905133
:1005D000019941F80BB0A8680090C4081F2C88BF8F
:1005E00001F05EF8009828B305F1280000996F69C2
:1005F00000EBC408C146102938BF01F051F8286843
:1006000020FA04F1CA0705D4012101FA04F40443D5
:100610002C6007E0D8F80800296988422CBF814681
:1006200001F03EF8C8F80870C9F80C70C7F80890D7
:10063000C7F80C80C5F808B0019868611AF108087D
:1006400000F0F78100F06BBD01F02AF8F1E116F13E
:10065000400F28BF4FF0FF3680F0EB810B36F608D5
:100660006B68F600002B00F0E4810027300AC6F129
:10067000000908BF002423D0B0F5803F28BF1F2405
:100680001ED2A0F58071090C01F008018840A0F588
:100690008052120C02F004029040A0F58044240C19
:1006A000C1F10E0104F00204891A091BA04001EBFC
:1006B000D031C81D26FA00F404F0010404EB410413
:1006C00005F5987858F8240040B31F2C0FBFB446A6
:1006D0004FEA540CCCF1190C06FA0CFCBE46494604
:1006E00001E04FEA4C0C4268D208D200921B8A42C9
:1006F00007D3426910304FEADC7950F829003AB14B
:1007000003E011000746F4D105E0824218BF964687
:100710000028E6D170468946A8BBB7BB012101FA83
:1007200004F4640060420443234000F08281584294
:1007300003405B1E180B00F01000C340590901F084
:100740000801CB409A0802F00402D3405C0804F090
:1007500002040818E3401018C3F3400C201860444A
:1007600023FA0CF31B1858F823000CE008464168E4
:10077000C908C900891B49453CBF8946074601692C
:100780000029F3D140690028F1D1002F00F05181F8
:10079000A868801B814580F04C8129698F42FFF455
:1007A00053AF7868C008C00006EB0901884218BF43
:1007B00000F076FF07EB060B5F45BFF445AFFC6822
:1007C000D7F818A0BC420CD0B8682969884223D356
:1007D000C268BA4204BFA168B9421DD1C460A0601A
:1007E0001CE007F114010C6834B907F110010C6822
:1007F000A4B101E011460C6804F11402106800284D
:1008000002BF04F1100210680028F3D12869814268
:1008100002D300220A6001E000F042FFBAF1000FAB
:1008200039D0F86908EB80010A6897420AD134BBD5
:100830006A68012303FA00F022EA000068600020E1
:10084000086028E029698A4516D3DAF81000B84212
:1008500014BFCAF81440CAF81040E4B129698C42A8
:1008600017D3C4F818A0386958B1884226BF206150
:10087000846100F015FF04E000F012FFEDE70C606A
:10088000ECE7786938B12969884202D360618461F4
:1008900001E000F005FFB9F1100F0CD2B14449F0AE
:1008A0000300391D7860381D51F8092042F001021B
:1008B00040F80920B9E046F003013A1D796049F09B
:1008C000010090514FEAD9004BF809901F2822D817
:1008D00005F1280101EBC004296821FA00F2D307D1
:1008E000A04605D4012202FA00F00843286006E081
:1008F000A068296988422CBF804600F0D1FEC4F868
:1009000008B007F10800C8F80CB040F8068007F1FD
:100910000C018C5189E05FEA192008BF002123D027
:10092000B0F5803F28BF1F211ED2A0F58072120CA7
:1009300002F008029040A0F58051090C01F004017A
:100940008840A0F580431B0CC2F10E0203F00203A5
:10095000521AD21A984002EBD032D01D29FA00F177
:1009600001F0010101EB420107F11403CBF81C1067
:1009700000229A5107F1100308EB81009A516A682E
:1009800022FA01F3DC0711D4012303FA01F1114328
:100990006960C0F800B0CBF8180007F1080107F152
:1009A0000C0040F806B041F806B03EE002681F298E
:1009B0001DBF4908C1F1190109FA01F1494600E0DA
:1009C00002465068C008C000484518D002F1100324
:1009D000C80F03EB8003490018680028F0D128698C
:1009E000834220D3C3F800B007F10C01CBF81820E4
:1009F00041F806B007F1080040F806B015E0296993
:100A000090688A4228BF88420DD3C0F80CB007F125
:100A10000801C2F808B0885107F10C008251002289
:100A2000CBF8182001E000F03BFE17F1080840F079
:100A30007683A868B0421ED3811B6A6910290AD345
:100A4000141DA96041F001009319A051595046F0BE
:100A5000030656600BE00021A96040F00304111D5D
:100A60005460141D0E5846F00106265000236B6199
:100A700002F1080853E3E8688642C0F04083DFF8DB
:100A8000D89BD9F8000008B9FFF78EFBD9F80810F9
:100A900088192F30491E20EA01018E4280F03D83E3
:100AA00005F5D877B86838B13A6889188A4280F075
:100AB00034838842C0F0318300F012FE00281CBF4E
:100AC000D0F8008010F1010F00F027833968AC697D
:100AD00041443960D5F8B021D5F8B4118A4238BF05
:100AE0000A467A6004BB296909B1884200D22861AC
:100AF00000213861C7F81480F9614FF0FF31D9F84F
:100B000000206A62296205F1280200219260D26009
:100B100002F1080353611361891C10321F29F5D9B2
:100B2000A8F1280201461DE005F5E0710A4681465C
:100B300000E09268D2B11068536803449945F8D137
:100B4000107B030712D413689C420FD3D2F804C061
:100B500063449C420AD2C444C2F804C02146E868F7
:100B600008EB00022846FFF735FBC5E228698145FE
:100B700038BFC5F8109009EB080000E0896800292B
:100B800000F0C1810A688242F8D1087B020700F1B7
:100B9000BA810868C1F800904A6842444A6009F185
:100BA000080111F0070F08BFCDF8049006D0C1F17D
:100BB000080101F0070109EB0102019200F10801AF
:100BC00011F0070F04D0C1F1080101F0070108443A
:100BD00080460198A8EB00018419A1EB060B27467B
:100BE00046F003064660474528BF00F059FD98F8D7
:100BF0000400C10758BF00F053FDBBF1100F38BF10
:100C000000F04EFDA869804508D1E9688B44C5F81D
:100C10000CB0AF614BF00100786070E1686980450D
:100C20000AD1A9686F618B44C5F808B04BF0010088
:100C3000786047F80BB062E1D8F8040000F00301D7
:100C4000012940F0BC80C008C000C1081F290390E2
:100C500040D8D8F808200092D8F80C600291B0452E
:100C600008BF00F01DFD0098804508BF00F018FD8A
:100C7000D8F804000299C008C000B0EBC10F18BF3B
:100C800000F00EFD0299009A05F1280000EBC1006A
:100C9000824208D011462A699142C0F08B80CA680E
:100CA000424540F0878000998E4206D102982A681A
:100CB000012383409A432A607EE0864205D0296959
:100CC0008E4277D3B068404574D10098C6600099D1
:100CD000B16071E0D8F818000090D8F80C60464573
:100CE0000DD0D8F808002969884223D3C26842454C
:100CF00004BFB16841451DD1C660B0601CE008F179
:100D000014010E6836B908F110010E68A6B101E0B1
:100D100011460E6806F114021068002802BF06F1A1
:100D2000100210680028F3D12869814202D3002202
:100D30000A6001E000F0B4FC009800283CD0D8F82C
:100D40001C0005F5987101EB80010A6890450AD1F5
:100D50002EBB6A68012303FA00F022EA00006860F3
:100D60000020086028E000992869814214D30869AE
:100D7000404514BF4E610E61F6B129698E4219D308
:100D80000098B061D8F8100058B1884226BF306191
:100D9000866100F085FC04E000F082FCECE70E6068
:100DA000EBE7D8F8140038B12969884202D37061A2
:100DB000866101E000F074FC039988448B44D8F804
:100DC000041049084900C8F804104BF0010078608D
:100DD0004FEADB0647F80BB01F2E22D805F128009A
:100DE00000EBC604A146BBF1100F38BF00F058FC61
:100DF000286820FA06F1CA0705D4012101FA06F68F
:100E000006432E6006E0A068296988422CBF81460F
:100E100000F046FCA760C9F80C70C7F80890FC60A9
:100E20006DE05FEA1B2008BF002123D0B0F5803FB2
:100E300028BF1F211ED2A0F58072120C02F00802FA
:100E40009040A0F58051090C01F004018840A0F504
:100E500080431B0CC2F10E0203F00203521AD21A95
:100E6000984002EBD032D01D2BFA00F101F00101C5
:100E700001EB4201F961002305F598727B6102EBF9
:100E800081003B616A6822FA01F3DE0707D401237F
:100E900003FA01F1114369600760B8611DE002685F
:100EA0001F291DBF4908C1F119010BFA01F159466B
:100EB00000E002465068C008C000584510D002F15A
:100EC0001003C80F03EB8003490018680028F0D115
:100ED0002869834211D31F60BA61FF60BC600EE0D5
:100EE000296990688A4228BF884206D3C760976004
:100EF000B860FA600020B86101E000F0D1FB019811
:100F000000F108080BE121462846FFF73FF9016888
:100F1000406808440090A0F1270111F007000098F4
:100F20000EBF0021C1F1080101F007010844A0F142
:100F30002F0B04F110018B4538BFA3460BF11802AB
:100F4000002102920191A8F1280249462846FFF7A4
:100F500041F90BF1080010F0070F18BF00F0A0FBDB
:100F60001B20CBF8040005F5E07292E809500BF164
:100F7000080181E8095000210BF10800F961B8610E
:100F8000009A02980199C7F81090C7F814800723B7
:100F900000E0001D491C00F1080797424360F8D3A8
:100FA0000129D8BF00F07CFBA34500F0A580ABEB86
:100FB000040B201D221D50F80B104908490042F86F
:100FC0000B104BF0010060604FEADB0944F80BB0F6
:100FD000B9F11F0F22D805F1280000EBC907B84668
:100FE000BBF1100F38BF00F05BFB286820FA09F155
:100FF000CA0705D4012101FA09F10843286006E077
:10100000B868296988422CBF804600F049FBBC6063
:10101000C8F80C40C4F80880E7606DE05FEA1B2068
:1010200008BF002123D0B0F5803F28BF1F211ED26A
:10103000A0F58072120C02F008029040A0F58051D9
:10104000090C01F004018840A0F580431B0CC2F19B
:101050000E0203F00203521AD21A984002EBD03269
:10106000D01D2BFA00F101F0010101EB420105F561
:101070009872002302EB8100E161636123616A6879
:1010800022FA01F3DF0707D4012303FA01F1114328
:1010900069600460A0611DE002681F291DBF490846
:1010A000C1F119010BFA01F1594600E002465068FE
:1010B000C008C000584510D002F11003C80F03EB60
:1010C0008003490018680028F0D12869834211D3B1
:1010D0001C60A261E460A4600EE0296990688A4205
:1010E00028BF884206D3C4609460A060E2600020FC
:1010F000A06101E000F0D4FAE86886420DD2801BBE
:10110000A969E8608A19AA6140F00100506046F0C0
:1011100003064E6001F1080801E04FF00008AFF34C
:101120000080404605B0BDE8F08F002800D1704730
:101130002DE9F047A0F10805AFF30080DFF85C650A
:1011400031698D42C0F08482686800F00302012A90
:1011500000F07E82C2084FEAC209C20705EB090807
:1011600039D42C6810F0030F00F06E826042054401
:101170008D42A144C0F06C827069854200F0DE802F
:10118000E408202C72D2D5F80CA0AF68554508BFF2
:1011900000F086FABD4208BF00F082FA6868C00815
:1011A000C000B0EBC40F18BF00F07AFA06F12800B7
:1011B00000EBC400874205D031698F4253D3FA68EF
:1011C000AA4250D1BA4540D13068012101FA04F455
:1011D00020EA04043460454580F03A82D8F804409F
:1011E000E00740F13582A10700F18381B0698045B5
:1011F00040F0B780F168B5618944C6F80C9049F0B9
:101200000100686071698D4202D100207061B06098
:10121000F169494580F01882DFF83C24106808B96C
:10122000FEF7C2FFB169002900F00E82F06829289C
:1012300024BF3046FEF7AAFFF069F168884280F0CB
:1012400003824FF0FF30F061FEE1824506D0306945
:10125000824508D3DAF80810A94204D1C7F80CA0D7
:10126000CAF80870B7E700F01BFAB4E7EC68AF699A
:10127000AC420BD0A868884222D3C168A94204BFFF
:10128000A268AA421CD1C460A0601BE005F1140250
:10129000146834B905F1100214689CB101E01A46D3
:1012A000146804F114031868002802BF04F1100345
:1012B00018680028F3D18A4202D30021116001E0AE
:1012C00000F0EEF9002F86D0E86906F5987101EB81
:1012D00080010A6895420AD124BB7268012303FA8F
:1012E00000F022EA000070600020086073E73169B6
:1012F0008F4214D33869A84214BF7C613C61002C32
:101300003FF469AF31698C42ADD3A761286958B108
:10131000884226BF2061846100F0C2F904E000F039
:10132000BFF9ECE70C60EDE7686900283FF453AFC4
:101330003169884297D3606184614CE798F8040072
:1013400000F0030003287FF446AFC6F8089049F088
:101350000101D8F8040040084000C8F804006960A2
:101360000AE0706980450AD1B16875618944C6F8A0
:10137000089049F00100686045F8099064E1E408CC
:10138000E400A144E408202C3AD2D8F80CA0D8F804
:101390000870D04508BF00F083F9B84508BF00F0D9
:1013A0007FF9D8F80400C008C000B0EBC40F18BF24
:1013B00000F076F906F1280000EBC400874207D060
:1013C00031698F42C0F08880FA68424540F08480DD
:1013D000BA4507D13068012101FA04F420EA040477
:1013E00034607BE0824506D03069824574D3DAF8F8
:1013F0000810414570D1C7F80CA0CAF808706DE01C
:10140000D8F80C40D8F8187044450DD0D8F808002A
:101410003169884223D3C268424504BFA16841456F
:101420001DD1C460A0601CE008F114010C6834B93F
:1014300008F110010C68A4B101E011460C6804F138
:1014400014021068002802BF04F11002106800287E
:10145000F3D13069814202D300220A6001E000F03A
:101460001FF9002F3AD0D8F81C0006F5987101EB4F
:1014700080010A6890450AD11CBB7268012303FAF7
:1014800000F022EA000070600020086026E0316968
:101490008F4213D33869404514BF7C613C61ECB185
:1014A00031698C4218D3A761D8F8100058B188422E
:1014B00026BF2061846100F0F3F804E000F0F0F84A
:1014C000EDE70C60ECE7D8F8140038B131698842D8
:1014D00002D36061846101E000F0E2F849F00100AC
:1014E000686045F8099071698D420BD1C6F8089083
:1014F000AAE064086400C8F8044049F0010068608C
:1015000045F809904FEAD907202F22D206F128008A
:1015100000EBC704A046B9F1100F38BF00F0C0F8C7
:10152000306820FA07F1CA0705D4012101FA07F74C
:101530000743376006E0A068316988422CBF8046C7
:1015400000F0AEF8A560C8F80C50C5F80880EC6053
:101550007AE05FEA192008BF002123D0B0F5803F70
:1015600028BF1F211ED2A0F58072120C02F00802C3
:101570009040A0F58051090C01F004018840A0F5CD
:1015800080431B0CC2F10E0203F00203521AD21A5E
:10159000984002EBD032D01D29FA00F101F0010190
:1015A00001EB420106F59872002302EB8100E9612C
:1015B0006B612B61726822FA01F3DC0707D4012307
:1015C00003FA01F1114371600560A8611DE0026832
:1015D0001F291DBF4908C1F1190109FA01F1494646
:1015E00000E002465068C008C000484510D002F133
:1015F0001003C80F03EB8003490018680028F0D1DE
:101600003069834211D31D60AA61ED60AD600EE0C8
:10161000316990688A4228BF884206D3C5609560C8
:10162000A860EA600020A86101E000F039F8306AA3
:10163000401E08D13062D6F8C80100E0806800285A
:10164000FCD14FF0FF303062AFF30080BDE8F0878F
:1016500000F026F8F8E700003C0A002038B5002525
:1016600058B141EA0002120C01FB00F512041EBF42
:10167000B5FBF0F088424FF0FF352846FEF7CAFD73
:1016800004001CBF14F8040C10F0030F03D029460B
:10169000204600F03BF8204632BD0000D402002076
:1016A000012000F037B830B50168846842184168FD
:1016B00002EB5103C90703D54C4401E0491C08D192
:1016C0009A4218BF12F9011B01D10C3030BD12F83B
:1016D000015B002904F8015BF0D4491EF7D5EFE760
:1016E0000749086808B1002070470648C008C000D4
:1016F00008600549C908C900091A0160704700BFA0
:10170000B40A0020BF0E0020B8100020002200F014
:101710000BB8000080B5AFF30080024A110018201A
:10172000ABBEFBE7260002004018491C1CBFB1F10C
:10173000010100F8012DF9D17047000038B504000F
:1017400001D1012032BD04F14005687820B90021A3
:101750002970204600F0B3FF00F053F8606821685C
:1017600020F0706008612068816821F40041816088
:10177000E06821680128A0680CBF40F4004040F4F4
:1017800004408860E068022803D120684FF40061BB
:1017900041602068416841F0007141F400414160BE
:1017A0002068C16821F40041C16060692169A269B3
:1017B0000143206841EA0221C160206AE169226890
:1017C000014311602068016841F0010101600020BF
:1017D0006860202169702063A87032BD38B50400AC
:1017E00001D1012032BD04F1400500F00AF8204685
:1017F00000F0D8FF0020686068702063A87028702F
:1018000032BD2420687020680168490849000160E1
:1018100070472DE9FC4100F0CDF811464CD122680B
:101820009069020448D42878012845D001222A7002
:10183000212000F09FF861626385DFF89C01DFF8EA
:10184000A421DFF88071E062626300F0C7F804D37E
:10185000FF2222854FF0807802E000F085F825D045
:10186000A06BD0B1DFF88021C262DFF88001A26BEB
:1018700050630020A26B1063A26B906300F080FDA8
:1018800070B900974346228DD2B200F05DF900F0A6
:1018900087F8206800F06EFA0CE000F079F801E0BB
:1018A00000F06EF868602970012006E000F046F94B
:1018B00000F08CF8002000E00220BDE8F6812DE960
:1018C000FC4100F077F84CD121688869010448D4C4
:1018D0002878012845D001212970222000F04AF8FB
:1018E00062626385DFF8F000DFF8F810DFF8D87087
:1018F000E062616300F072F804D3FF2121854FF0AC
:10190000807802E000F030F825D0E06BD0B1DFF84D
:10191000EC10C162DFF8D400E16B48630020E16B9A
:101920000863E16B886300F051FD70B9009743468E
:10193000228DD2B200F008F900F032F8206800F0F1
:1019400058F80CE000F024F801E000F019F86860A5
:101950002970012006E000F0F1F800F037F80020CF
:1019600000E00220BDE8F681608D208500284FF060
:101970000078704768701027AF700020686070476B
:10198000202068700021A970686840F0100070473E
:10199000202068700021A970686840F080007047BE
:1019A000618D208D091A6185204600212970102142
:1019B00000F048BD044604F140050E466878202832
:1019C0007047000000200080002400800020287064
:1019D0000121204600F036BD0000FFFF608DB0F50C
:1019E000807F7047711C000849230008DB23000832
:1019F0002868016841F40041016070478F230008A6
:101A0000026891691268436B002B18BF1847704732
:101A100090F841007047406C70470000F8B50446EC
:101A200004F140050E4628780128174601D102200E
:101A3000F2BD0120F10628700CD5F8060AD52268FF
:101A40001021D161686840F004006860204600F011
:101A50006DFC68E070070BD5790709D52068416AED
:101A6000606A017026F00406616A4A1C62620AE03C
:101A7000B0070FD5B9070DD5606A22680178916269
:101A8000606A411C6162208D411E2185608D411E6E
:101A9000618548E0310607F04000DFF86C3929D550
:101AA000002827D0608D00B3208DF0B921684968E7
:101AB000FFF794FFC1F3090106D3FF22228500201E
:101AC00000904FF080730DE0628D2285E06A9842AD
:101AD00003D000230093E36A03E0002000904FF05E
:101AE0000073D2B200F031F81DE02068416888012F
:101AF00015D410E0710616D5A8B1608D78B92068AC
:101B000041688A010FD4E16A994204D1426842F4E3
:101B10008042426007E0204600F0F7F903E04021F0
:101B2000204600F089FBB00605D5B90603D531463D
:101B3000204600F04AFA00202870F2BDDFF80009C4
:101B400060630097434600223146204600F063BCA4
:101B50002DE9F041054605F14006D5F82C80307896
:101B600001280F46144608BF022000F07F800120A4
:101B7000B906307005D5A00603D53946284600F0D1
:101B80008FFAF806DFF8801830D5E2062ED5688D7A
:101B9000D0B97078282808BFB8F1007F04D1394641
:101BA000284600F017FB5FE07078292808D18845A7
:101BB00006D028681021C161284600F0B7FB50E02C
:101BC00029681020C8614FE029681020C861B8F169
:101BD000000F706840F0040018BFB8F1807F70609B
:101BE00042D17168284600F027FB3DE0780715D503
:101BF000620713D5688D60B12A68506A6A6A1070EE
:101C0000686A431C288D6B62421E2A85688D421EBD
:101C10006A85688D40BB884526D022E0380706D506
:101C2000210704D53946284600F027F91CE0B807FB
:101C30001AD5A10718D5688D68B1686A2A68017835
:101C40009162686A411C6962688D411E6985288DB0
:101C5000411E298508E0B8F1807F18BFB8F1000F58
:101C600002D1284600F079F900203070BDE8F081FB
:101C70007CB5054605F140042078012801D10220F9
:101C800076BD0120CB06207010D5D0060ED52A686F
:101C90001021D1612021606840F004006060284676
:101CA00000F0D0FB284600F041FB5FE00E0602F09A
:101CB0004000DFF8543738D5002836D0286801684E
:101CC00021F0400101602968688D50B34968688D32
:101CD000B0F5807FC1F3090104D3FF222A854FF0BC
:101CE000807307E0688D2885EA6A9A4214BFEB6A20
:101CF0004FF000730020009028462A8DD2B200F0E9
:101D00008AFB698D288D091A6985286861782229DE
:101D100004D1026842F40042026027E000F02AF891
:101D200024E04868810115D410E04E0617D5B0B103
:101D3000688D78B9286841688A0117D4E96A9942A0
:101D400004D1426842F4804242600FE0284600F02D
:101D5000DCF80BE04021284600F06EFA06E0880629
:101D600004D5920644BF284600F02FF900202070C9
:101D700076BD2868016841F4804101607047000029
:101D80002DE9F843064606F14007D6F82C9038783E
:101D9000002501288846144608BF02206BD0012088
:101DA0005FEA8861387005D5A00603D54146304604
:101DB00000F076F95FEAC86052D5E10650D514F418
:101DC000404F49D0F06B28B1210403D50268506818
:101DD00000B90125B06B20B1610402D502685068DA
:101DE00000B1DDB17878282808BFB9F1007F04D1AF
:101DF0004146304600F0EEF93BE0787829282BD1B7
:101E0000DFF80416894527D032681020D0613046AB
:101E100000F08CFA304600F0A0F82AE0316810207B
:101E2000C861B9F1000F786840F00400786018BF0D
:101E3000B9F1807F78781CD1212814BF292821206E
:101E400004D0222818BF2A2801D1222030637968C3
:101E5000304600F0F1F90CE031681020C86108E06C
:101E60005FEA087005D5210703D54146304600F0EA
:101E700004F800203870BDE8F2832DE9F04100F04D
:101E80009FF8697801F02801282938D1866981698D
:101E90008268C768090C01F0FE08E168360C022967
:101EA00006F00106C2F3090207F0FE071AD1D109B4
:101EB00008F0060301F006018B420BD1A968491C0A
:101EC000A960A96802291ED10023AB600827C76159
:101ED0002B700EE04FF4004100F0E0F80020287075
:101EE0003A4606E04FF4004100F0D8F80020287090
:101EF000424631462046BDE8F04100F05DBE082173
:101F0000C16100202870BDE8F08138B5044604F1B5
:101F100040050020A870697821290ED12020687022
:101F2000112121630022626300F0B7F800222A70B9
:101F30002046BDE8324000F011BF20206870122119
:101F4000216300206063022100F0A8F800202870BF
:101F50002046BDE8324000F00ABF38B500F030F846
:101F6000016800224B04AA7002D500F02EF905E0AA
:101F7000090403D5026822F4004202606878292827
:101F80000CD1282169702122226300F086F80022FA
:101F90002A702046BDE8324000F0F8BE68782A2852
:101FA0000DD12821697022202063022100F076F8EB
:101FB000002028702046BDE8324000F0E8BE31BD68
:101FC000044604F14005206870477CB50D46044680
:101FD0002020216804F14006C8617278212A04D1CA
:101FE00000F05BF81122226307E07078222804D108
:101FF000022100F053F812202063216800F006FA55
:1020000000216163E906DFF80004E06206D522687A
:102010001020D061706840F0040070607078602813
:1020200006D1680704D52168486AC0B200900099BB
:10203000204600F07BF970687178602900D020B1EB
:1020400071682046BDE87C40F6E0707821280AD10E
:1020500000F019F803D1BDE8764000F099BEBDE864
:10206000764000F07BBE707822280AD100F00BF891
:1020700003D1BDE8764000F08CBEBDE8764000F0AC
:1020800076BE73BD00002021717000202063B178FE
:10209000B0703070402920467047012120460BE285
:1020A000F8B5FFF78DFF0768687822680E46202193
:1020B000212818BF2928D16106D148F20101FFF774
:1020C000EDFF2122226309E0222818BF2A2805D12A
:1020D00048F20201FFF7E2FF22202063206800F0AF
:1020E0006FF8DFF8C00321684A6802404A60204662
:1020F00000F01CF9780404D5206800F066F8A06BA5
:1021000007E0380409D52068016821F40041016026
:10211000E06B10B100684168618570070CD52168DB
:10212000486A616A087026F00406606A421C208DC5
:10213000626208B100F07AF8608D18B1686840F00A
:10214000040068600020A87000216163686858B1CD
:102150006968204600F070F8687828282DD131464B
:102160002046BDE8F44035E0E06ADFF89C62B0420A
:102170000DD02046FFF7F1FEE662202068700021B6
:10218000216329702046BDE8F24000F003BE687864
:10219000222809D120216970002020632870204660
:1021A000BDE8F24000F0F3BD202068702163297083
:1021B0002046BDE8F24000F0E9BDF1BD00283068DE
:1021C000416841F4004141607047016821F4804159
:1021D0000160704738B50446DFF82C02E062002247
:1021E00004F14005226320206870AA7049076263E9
:1021F0000ED52068416A606A0170616A208D4A1CB0
:10220000626228B100F012F8696841F00401696067
:1022100048F20301FFF742FF20681022C26100214B
:1022200029702046BDE8324000F0B4BD401E208534
:10223000618D481E6085704770B5044604F1400505
:1022400000226878DFF8C031AA70E36262856B68AB
:10225000194328281CBF29282A28696007D103218F
:10226000FFF71CFF28226A70DFF83C0209E048F201
:102270000301FFF713FF687860281CBF20216970F5
:1022800000206063216BA06B0FF26916C0B11129A9
:1022900018BF212914D1206801684A0401D5FFF72D
:1022A00094FFA06B00F0DAFE012829D0A06B8663B2
:1022B00000212970A06B00F04CFE28B3A06B1BE03E
:1022C000E06BE8B1122918BF222919D120680168F2
:1022D0000A0403D5016821F400410160E06B00F0BD
:1022E000BDFE01280CD0E06B866300212970E06BF5
:1022F00000F02FFE40B1E06B816BBDE870400847F5
:102300002046BDE8704000E070BD00F130014A7C1D
:10231000602A06D120234B7400220A600A7400F060
:10232000B4BE00220A600A7400F0B0BE0068816981
:102330008A0744BF002181628169CA0703D4816989
:1023400041F001018161704710B5846A206802681C
:1023500022F480420260618D09B920210FE0606A99
:10236000218D01446162FFF739FB27BFFF222285DF
:10237000608D208500F004F800B135E0402121E0B7
:102380002068238D00F12802A06B00F0ADBD10B5D0
:10239000846A2068026822F400420260618D09B9F3
:1023A00020210FE0606A218D42186262FFF716FB60
:1023B00027BFFF212185608D208500F007F800B13F
:1023C00012E040212046BDE810403BE02068238D0C
:1023D00000F12401E06B00F087BD806A01684A6863
:1023E00042F400424A6002E02046BDE8104010215D
:1023F00022E70000806A816B09B100228A63C16B09
:1024000009B100228A6380E70000FFFF25484A687F
:1024100002404A60704770B50068049C4568234ECE
:10242000C1F3090141EA0241194346EA54562143E6
:10243000B54321F000412943416070BD0000000018
:102440001D1A000860B5436B194D0022AB421CBF3A
:10245000184EB34211D10B0448BFB822102908BF4F
:1024600042F0900218D0202908BF42F0600213D039
:10247000402911D142F040020EE00B0448BFB822BF
:10248000CB0748BF42F0F2028B0748BF42F0F4028C
:10249000202908BF42F02002006801680A43026058
:1024A00060BD000000E800FE511B0008FF63FF0351
:1024B000711C0008811D00080022CB0707D590F889
:1024C0004130422203F02803282B18BFF2228B0749
:1024D00009D590F8413003F0280342F04402282B3C
:1024E00018BF42F0B0020B0448BF42F0B8021029F6
:1024F00008BF42F0900208D0202908BF42F0200215
:1025000003D0402908BF42F040020068016821EA78
:102510000202026070470000DFF82C0681B081687B
:1025200041F001018160816801F001010091009991
:10253000026842F080520260006800F08050009013
:10254000009801B0704718B59DB000F025F900F073
:102550001EF92068DFF8F415884248D14FF4804214
:1025600006924FF08051032207921A910822099295
:102570000121022208910B920C9207214FF08072E8
:102580000A910D9200F000F908B100F065FFDFF844
:10259000C005016841F400510160026802F4005274
:1025A000009200F026F8036803F0010300930099FD
:1025B000026842F0020202602021006800F002007E
:1025C00000900B22009801910292002103914FF09C
:1025D000904001A900F042FF01200B2101900291DF
:1025E0000022039201A9DFF86C0500F037FF1EB04E
:1025F00010BD0099026842F001020260704710B5F8
:1026000086B000F0C9F82168DFF84C05814228D176
:10261000DFF83C05C16841F00071C160C16801F09C
:1026200000710091FFF7E5FF4FF4C05100F0D3F9BE
:10263000032209210591049201A94FF0904000F076
:102640000DFF00220021142001F090F8142001F069
:10265000ABF800220021162001F088F8162001F0C6
:10266000A3F806B010BD0068DFF8EC14884200D073
:10267000704780B5DFF8D004026822F00072026073
:102680004FF4C05100F077F9142001F098F8BDE83C
:102690000240162001F093B881B00068DFF8BC1446
:1026A00088420AD1DFF8B804026842F4805202601E
:1026B000006800F480500090009801B0704778B531
:1026C0009DB000F069F800F062F82068DFF894141B
:1026D000884257D1802200210692139100F054F8CD
:1026E00008B100F0B9FEDFF86854DFF87C642868B0
:1026F00040F0020028601222296801F002010091D6
:102700004FF440610098DFF84C04019102920021DF
:102710000391032204210591049201A900F09EFE79
:10272000E86840F48000E8600321E868DFF83C5482
:1027300000F480000090009871601020B0600021CB
:1027400080203061F1607161B161F16131623560A9
:10275000304600F021FB08B100F07EFEA663B462B3
:102760000321DFF80C6400F0B8F908B100F074FE42
:10277000E663B46200220021212000F0F7FF21204F
:1027800001F012F81EB070BD06A801F049B85C2235
:10279000002106A801F002BA04461422002101A873
:1027A00001F0FCB938B50446DFF8B8132068884258
:1027B0001CD1DFF89403DFF89C53026822F48002F6
:1027C00002604FF48061284600F017FF4FF400616B
:1027D000284600F012FFA06B00F033FBE06B00F026
:1027E00030FBBDE83240212000F0E9BF31BD10B51B
:1027F00098B004465C22002101A801F0CFF92168BD
:10280000DFF8702391421DD14FF400730021019332
:10281000109101A801F004F808B100F01DFEDFF8E6
:102820002803016841F0004101600022006800F0C7
:102830000040009000210098412000F097FF4120C7
:1028400000F0B2FF18B010BD0068DFF8281388420E
:1028500008D1DFF8F402026822F000420260412051
:1028600000F0ADBF704770B586B000F046F9216842
:10287000DFF80423DFF8D80291423CD14169DFF848
:10288000FC62DFF8FC5241F480514161416901F47E
:10289000805105910599FFF7ADFED221006800F047
:1028A000010005900222059800F05BF84FF090407F
:1028B00000F0D4FD012000F038F908B100F0CCFDA3
:1028C000A665B46205F11400AE4E3060012171605E
:1028D00000201022F06080217061B061F0613062F0
:1028E000B2603161304600F057FA08B100F0B4FD33
:1028F0006665B46233E0A44A914230D1C16841F4C4
:102900008041C160C16801F4804105910599026868
:1029100042F004020260036803F004030593059982
:10292000026842F0020202600821006800F0020022
:10293000059002220598954800F013F800F08EFDEE
:1029400002210191002202924FF440500321009095
:1029500003910522049269467E4800F07FFD06B08F
:1029600070BD009101920021029103220521049182
:102970000392694670474FF0904000F03EBE81B030
:1029800000688349884209D18248026842F40062A3
:102990000260006800F400600090009801B0704789
:1029A00010B586B0FFF7F8FE21687948814210D152
:1029B0006748016841F0010101604FF4807100F047
:1029C0000AF804914FF090400121059101A900F00F
:1029D00045FD06B010BD006800F001000090022225
:1029E00000980191029200210391704778B59DB043
:1029F00000F083F8FFF7CBFE20686749544D88420A
:102A000027D10122002106920E91FFF7BDFE08B1E9
:102A100000F022FD6869614E40F480406861686999
:102A200000F4804000F052F84FF4C0612A685C4D19
:102A300000F069F8022100F050F808B100F00CFD38
:102A40002667B4620220574E102135607060B16075
:102A50002AE05549884237D10222002106920F917F
:102A6000FFF792FE08B100F0F7FCE8684F4E40F423
:102A70000030E860E86800F4003000F027F80C212E
:102A80002A684B4D00F03FF8022000F04EF808B1E4
:102A900000F0E2FC2667B46205F11400454E022105
:102AA000102230607160B2600020F06080213161DE
:102AB0007061B061F0613062304600F06DF908B1CC
:102AC00000F0CAFCE666B4621EB070BD05900598C1
:102AD000296841F0010129607047716005F1140017
:102AE000306000228021B260F26031617261B261B7
:102AF000F2613262304600F04FB9044614220021E0
:102B0000684601F04BB802F00102059202220598D6
:102B10000091019200210291032207210491039266
:102B200069464FF0904000F099BC70600021B160A0
:102B30000020F06080217061B061F061306231612D
:102B40003560304600F028B95810024000000450AB
:102B50004C10024000040048006400400030024075
:102B60004810024000580040000600204400024087
:102B7000B8050020007C0040003001409006002095
:102B80001C000240D8060020003800400008004821
:102B9000002C014060100240003801402007002056
:102BA0006C0402406807002000440040B007002089
:102BB0006C000240F80700207047000038B5002480
:102BC00001286F4D1AD16F486F49286010220120EB
:102BD000E8606960AA602C616C61AC61EC612C6298
:102BE0002846FEF7ABFD68B90021284600F0E0FF5B
:102BF00040B90021284600F0F0FF02E02846FEF729
:102C0000EDFD00B10124204632BD2DE9F843064612
:102C10008946904600256427594C05E000F09BF852
:102C20007F1EF9B201B901252046FEF7F1FE2028EA
:102C30001CBFF8B20028F1D1280018D143464A46FB
:102C400031462046FEF7E5FD08B101250FE0642678
:102C500005E000F080F8761EF0B200B901252046AC
:102C6000FEF7D6FE20281CBFF0B20028F1D1204686
:102C7000FEF7D1FE00B101252846BDE8F283000031
:102C80002DE9FC4791469A4600248DF80010002556
:102C90000746DFF8EC80642611E04046FEF7BBFEF5
:102CA000002850D16D1CE8B2052851D064260428B4
:102CB0004BD8DFE800F00414032B4300EDE7404657
:102CC000FEF7A6FE20281CBFF0B200283DD000F081
:102CD00042F8761EF0B20028F1D10124EFE701237B
:102CE0006A4639464046FEF794FD60BB4046FEF713
:102CF0008FFE20281CBFF0B2002826D000F02BF851
:102D0000761EF0B20028F1D10124EFE7791C53467A
:102D10004A4689B24046FEF7D2FDA0B94046FEF7CA
:102D200077FE20281CBFF0B200280ED000F013F868
:102D3000761EF0B20028F1D10124EFE74046FEF7FD
:102D40006AFE0028AED0012402E06D1C2000AAD04B
:102D50002046BDE8F687012000F06ABF084A0168F6
:102D60001368994204BF806B00F0F3B87047044ABF
:102D700001681368994204BFC06B00F0EAB870475D
:102D80006C050020005800405D3E302070477047C1
:102D9000704770477047000070B508B9012070BDDA
:102DA00002684A4D4A4CAA4200F1240308D249491C
:102DB0008A181426B2FBF6F292001A62DC6108E06F
:102DC00045498A181425B2FBF5F2920043491A626C
:102DD000D96102225A7001680D688168C26806686C
:102DE0006FF30E150D430169154342690D43816967
:102DF0001543C2690D43016A15430D43356082686E
:102E0000B2F5804F17D0DA690F21A2420CBF344AC5
:102E1000344A146893F8205005F01C05A94024EAB0
:102E200001011160116893F82040406804F01C040F
:102E3000A040014311600020986101215970187071
:102E400070BD70B508B9012070BD01681F4D0A68DA
:102E50001F4B520852000A6000F124020468AC4281
:102E600008D21C490C191426B4FBF6F4A400146211
:102E7000D36108E018490C191425B4FBF5F4A4003B
:102E800016491462D161002400680460012192F89F
:102E90002040D06904F01C04A14041600F20D1699A
:102EA00099420CBF0E490F490B6892F8204004F07C
:102EB0001C04A04023EA0000086000209060D0605D
:102EC0001061506190615070107070BD0804024034
:102ED00000000240F8FFFDBFF8FBFDBF0004024008
:102EE000A8000240A8040240F8B5044604F12406F4
:102EF00000253078012801D10220F2BD0120307078
:102F00007778012F21D102207070B56120680768A1
:102F10007F087F000760204600F0A3F82168F06872
:102F200020B10A6842F00E020A6008E0086820F04A
:102F3000040008602068016841F00A01016020680F
:102F4000016841F00101016001E035700225284669
:102F5000F2BD38B500F1240100244A78022A03D0DA
:102F600004208861012417E00268136823F00E032F
:102F70001360026815686D086D001560012291F8F4
:102F80002030CD6903F01C039A406A6001224A7028
:102F90000C70496901B18847204632BDF8B500F18F
:102FA00024010423CA6914680268156891F8206036
:102FB00006F01C0603FA06F73C4210D06F070ED548
:102FC0001468A50603D4146824F00404146000F007
:102FD0003DF8C968002938D0BDE8F440084702230D
:102FE00003FA06F73C4213D0AF0711D51468A506C3
:102FF00005D4146824F00A04146001224A7000F019
:1030000025F800220A708968F9B1BDE8F440084744
:10301000082303FA06F6344217D02B0715D5146897
:1030200024F00E041460012291F82030CC6903F0E2
:103030001C039A40626001228A614A7000220A7071
:10304000096911B1BDE8F4400847F1BD91F82020AD
:10305000CC6902F01C0293406360704790F8250031
:10306000704770B590F84450066C012405F01C05BB
:10307000AC407460046863608068102802D1A2606C
:10308000E16070BDA160E26070BD704770470000F4
:103090002DE9F0419EB000F0DFFD00F09BF9C34C3C
:1030A000C34804F16805002104F130062980296134
:1030B000696170630121E96104F1640000F0DCFDE5
:1030C00008B100F0C9F9182200F0C2F9B94820602F
:1030D0000021042060616160E160216121830020A2
:1030E0000022012184F82000A062E062307030727A
:1030F000A260E1617260204600F01EFE08B100F09F
:10310000ABF9AD49009106220192002102917F2284
:10311000039204210491002205926946204600F0A2
:10312000D1FE08B100F098F9A448286201210020DE
:10313000A862286369632020E86300210720E8640F
:103140004FF482764FF4E0674FF480282964696475
:10315000A964296569656E62EF62C5F8388004F17B
:10316000880001F077F808B100F076F904F1EC0579
:10317000934828600021A960002028610121E861AE
:103180006862696107200021E8622962A9622963F7
:1031900069636E60EF60C5F81880284601F05AF840
:1031A00008B100F059F9874868664FF4E13600200D
:1031B0000C21AE66E86628676867A967E86704F5CA
:1031C000B67528606860A86004F5A87001F0B8F8CA
:1031D00008B100F041F97C48A86600210C20EE6699
:1031E00029676967A967E86704F5F675296069606A
:1031F000A960E96004F5EA7001F0A2F808B100F0F6
:103200002BF97248016841F001010160026802F087
:10321000010200920099026842F00202026000225C
:10322000006800F002000090002100980C2000F0DF
:103230009DFA0C2000F0B8FA002200210D2000F0C9
:1032400095FA0D2000F0B0FA002200210E2000F0C7
:103250008DFA0E2000F0A8FA002200210F2000F0C5
:1032600085FA0F2000F0A0FA00220021102000F0C3
:103270007DFA102000F098FA00220021112000F0C1
:1032800075FA112000F090FA00220021442000F08D
:103290006DFA442000F088FA00220021452000F059
:1032A00065FA452000F080FA102200211AA800F0EB
:1032B00075FC1422002115A800F070FC0C2200F00F
:1032C000C7F81C2200210EA800F068FC2C22002167
:1032D00003A800F063FC3E48E8660021296700204F
:1032E00068674FF6FF71E867A96704F51B70002156
:1032F0000160416004F51674204601F047FA08B1F8
:1033000000F0AAF84FF480501A901AA9204601F054
:10331000A8FA08B100F0A0F8204601F044FA08B17C
:1033200000F09AF8002115911691204615A901F098
:10333000FAFA08B100F090F8002000900190029095
:103340006946204601F0D2FC08B100F085F8002063
:103350000E900F90002211901390109212921492DE
:103360000EA9204601F044FA08B100F075F80020DB
:103370004FF4005103900490059006900790089137
:1033800009900A904FF000720C900D900B9203A9D7
:10339000204601F0D9FC08B100F05EF82046FFF7A6
:1033A000FFFA01F017FD01F019FDFCE730000020E5
:1033B00000300240000004500080F03E0030014028
:1033C00000380040003801400044004048100240EE
:1033D000002C014080B596B04422002105A800F0E1
:1033E000DDFB142200F034F84FF4007001F0D8FD3A
:1033F00008B100F031F8092105914FF48032012124
:1034000006920A91022203210F92109101220C21AF
:10341000119212910722022113921491159105A87D
:1034200001F0FAFD08B172B6FEE70F20032100900B
:10343000019100220292039204920221684602F056
:103440003DF808B172B6FEE702F01FF917B000BDF3
:103450000021684600F0A2BB72B6FEE72DE9F84FE6
:103460000027AD4AAD4B4FF00F0805460E4634E03D
:10347000AB4CA54214BF072404248C40A94944EA5C
:103480000E0441F82C40C143946801EA040C7468AE
:10349000E40248BF40EA0C0CC2F808C0D46801EA54
:1034A000040C7468A40248BF40EA0C0CC2F80CC0BB
:1034B000546801EA040C7468A40348BF40EA0C0C89
:1034C000C2F804C0146801EA040C7168C90348BF5B
:1034D00040EA0C0CC2F800C07F1C316831FA07F0DA
:1034E00000F089800124BC4014EA0100F4D04FEAC6
:1034F000470C032101FA0CF16FEA010E716801F02B
:103500000309B9F1010F1CBF01F00301022912D117
:10351000A968D6F80C900EEA010109FA0CF949EAFB
:103520000101A960696821EA04047168C1F300110E
:10353000B9400C436C60B900347904F00304032CE7
:1035400021D0EC68D6F808900EEA040409FA0CF9C8
:1035500049EA0404EC60347904F00304022C12D12B
:10356000FC0805EB840401F01C09D4F820A008FA3B
:1035700009FB2AEA0B0AD6F810B00BFA09F949EA56
:103580000A09C4F820902C680EEA040E347904F07D
:10359000030404FA0CF444EA0E042C60746814F476
:1035A000403F99D01C6844F001041C604FEA970C1E
:1035B0001C6804F00104009401F00C01009C594CBB
:1035C00054F82C4008FA01FE24EA0E0EB5F1904F93
:1035D00008BF00240ED0544CA54208BF012409D0D6
:1035E000524CA54208BF022404D0514CA5427FF49E
:1035F0003FAF032441E7BDE8F18F2DE9F04F8A4644
:103600004FF0000B4449474B0F2204463CE0444E28
:10361000B44214BF0726042606FA0EF6B54212D1AC
:103620000D68C04305400D604D6805404D60CD6894
:103630000540CD608D682840886053F8280020EA56
:10364000090043F8280003254FEA4B0005FA00F073
:1036500025680543256007F01C074FEADB0504EBEE
:10366000850502FA07F72E6A26EA07072F62C0438C
:10367000A7680740A760656825EA0C056560E768EC
:103680003840E0600BF1010B3AFA0BF025D0012035
:1036900000FA0BFC1CEA0A00F4D04FEA9B084FEA40
:1036A0008B0753F8285007F00C0E02FA0EF9B4F10C
:1036B000904F09EA050508BF0026ADD01A4EB44266
:1036C00008BF0126A8D0194EB44208BF0226A3D0D5
:1036D000174EB4429BD103269EE7BDE8F08F0069E8
:1036E000084018BF0120C0B270470AB1816170471D
:1036F00081627047426901EA0203914341EA034152
:10370000816170470B4A136803421CBF106002F0CE
:10371000A3B87047000000000004014060100240A0
:10372000001000480800014000040048000800485C
:10373000000C0048140401400901020002D4314881
:1037400081547047304B02F00F021A4402F8041CF7
:1037500070472E4B19684FF6FF020002114000F42B
:10376000E06008432A4908431860704770B5274B4A
:103770001C68C4F302230124C3F10705052D2EBFE5
:103780000F2504FA05F56D1E1E1D072E34BF0023FC
:10379000DB1E2940994004FA03F3BDE870405B1E2C
:1037A0001A401143C8E70000010007D4012200F0CD
:1037B0001F01184B8A40400943F820207047010040
:1037C0000BD4012200F01F01134B8A40400943F83B
:1037D0002020BFF34F8FBFF36F8F704710B5401E8F
:1037E000B0F1807F01D3012010BD0C4C60600F212F
:1037F0004FF0FF30FFF7A0FF0021A16007202060FD
:10380000002010BD00E400E018ED00E00CED00E049
:103810000000FA0500E100E080E100E010E000E0D7
:103820002DE9FC47064600243068DFF8487301059F
:10383000A0461BD5706C58B1B0F5000F03D0B0F5A1
:10384000400F09D010E03A6842F480323A6004E058
:10385000002100F00EF904463CB9F96F706C21F4B8
:1038600040010143F96701E00124A046306881036B
:103870002AD5F86CC1004FF000090AD4F86C40F06A
:103880008050F8644FF00109F86C00F0805000900F
:103890000098DFF8E452286840F48070286001F056
:1038A000EBFF82462868C10571D401F0E5FFA0EB6B
:1038B0000A000328F6D30324A046B9F1000F03D071
:1038C000F86C20F08050F8643078C10705D5FA6FA5
:1038D000306A920840EA8202FA673178880705D593
:1038E000F96F706A21F00C010143F96731784807DC
:1038F00005D5F96FB06A21F030010143F9673178DD
:10390000880605D5F96FF06A21F440610143F96733
:103910003168880505D5F96FF06B21F4402101432A
:10392000F9673168480505D5F96F306C21F440110D
:103930000143F9673178480605D5F96F306B21F4FA
:1039400040510143F9673178080605D5F96F706B6E
:1039500021F440410143F9673168C80505D5F96F85
:10396000B06B21F440310143F9673168080346D553
:10397000F96FB06C21F040610143F967B06CB0F1B0
:10398000006F34D1386840F48010386037E0002C84
:1039900092D1DFF8E841206810F440701CBFB16D8F
:1039A00088420BD02068216841F48031216020F4E6
:1039B0004070226822F4803222602060C0070FD558
:1039C00001F05AFF05462068810709D401F054FF31
:1039D000401B41F289318842F5D34FF003086CE770
:1039E0002168B06D21F440710143216065E7B0F1B9
:1039F000806F04D100F03CF8010018BF80463068A9
:103A0000410316D5FA6FF06C22F040620243FA6768
:103A1000F06CB0F1006F04D1386840F48010386069
:103A200007E0B0F1806F04D100F022F8010018BF68
:103A30008046306841040FD5FA6F306D22F0405255
:103A40000243FA67316DB1F1805F05D1022100F0C8
:103A500010F8010018BF80463068010405D5FA6FE0
:103A6000706D22F080420243FA674046BDE8F68757
:103A70000121301DFFE72DE9F0410546404F286840
:103A80000C46F968002611F0030F0DD0F96801F01B
:103A90000301814237D1B0B3F8686968C0F30210FE
:103AA000401C884213D02EE0012804D02BD30328D9
:103AB00023D01ED327E03A68910724D5FA686968B5
:103AC00022F073021043491E40EA0110F860386882
:103AD00020F08060386001F0CFFE80463868010138
:103AE00013D501F0C9FEA0EB08000328F6D3032686
:103AF0003BE039684A05E1D405E039688A03DDD442
:103B000039684A03DAD401262FE0A96844B93A6932
:103B10001C48EB68024042EA012141EAC3610FE020
:103B2000012C3A6906D12B69174800F031F841EAB7
:103B3000435105E06B69154800F02AF841EA4361FA
:103B40003961386840F08060386001F095FE0446C5
:103B50003868010105D401F08FFE001B0328F7D35C
:103B6000C5E73869A969084338613046BDE8F08186
:103B7000000000000C100240007000409010024055
:103B800000100240FF80FF07FF809FFFFF80FFF9CA
:103B900002405B0842EA01215B1E704710B50446F3
:103BA00010460A4601462046FDF7BEFD204610BDE0
:103BB00030B500F140025378202B0CD11478012C41
:103BC00009D000F01DF824F480541C6003681D68BF
:103BD0002943196020E0022030BD30B500F14002D9
:103BE0005378202B0AD11478012C07D000F008F864
:103BF00024F4706444EA01241C600DE0022030BD0E
:103C0000012313702424547003681D686D086D002F
:103C10001D6003681C6870470068016841F001017D
:103C200001602020507000211170002030BD000084
:103C300038B5044601F020FE14F1010F054602D00C
:103C400004480178641801F017FE401BA042FAD323
:103C500031BD00BF00000020032010B5FFF779FD43
:103C60000F2001F00FFE0024002814BF0124FEF7EE
:103C700053FC204610BD000010B5040020D0607F2A
:103C800020B9002121772046FEF706FD0221617749
:103C9000207970B92068164941612068816821F057
:103CA00018018160607968B920684FF0FF310161C7
:103CB0000BE0E268A168204601F006FE0028F1D082
:103CC000012010BD21682069086121688A68606947
:103CD00022F0600202438A6021688A68A06922F0AB
:103CE000800202438A6001216177002010BD00003C
:103CF000B71DC104603000EB8100006800F0F8409F
:103D00007047603000EB8100016821F000410A43F8
:103D100002607047CB0D10B5143003F0040318187F
:103D2000090D01F01F01036807248C40A34302FA28
:103D300001F11943016010BDF8B500250446009556
:103D40000CB90120F2BD04F15006706820B920467C
:103D5000FEF7F9FBB560357021688868800004D5EE
:103D60008A68DFF8500402408A6021688868C000D1
:103D700017D48A68DFF84004024042F080528A601B
:103D8000DFF83814DFF838240868B0FBF2F2521C70
:103D90005200009202E00098401E00900098002817
:103DA000F9D120688168C90008D4726842F0100215
:103DB00072600125B16841F00101B16081687268EB
:103DC000D30678D4490776D4726822F4807242F020
:103DD000020272608068C0070CD4DFF8E81308683C
:103DE000C00707D4DFF8E0130A68606822F47C1289
:103DF00002430A6004F13002607E5368E16894F87F
:103E0000207043EA4033A0680B430343012F43EA89
:103E1000074303D1606A401E43EA4043A06A20B1D1
:103E200000F470700343E06A03432168DFF89C03E9
:103E3000CF6807403B43CB6021688B6888685B078D
:103E400024D4000722D4CB68DFF88403277E034004
:103E5000107843EA873343EA4003CB60107A0128A5
:103E60000FD123681F69D16810696FF38A070F4368
:103E70005169074390690F43074347F001071F61EA
:103E800004E02068016949084900016120690128AE
:103E90002068016B05D1E2690909521E42EA01114D
:103EA00001E0090909010163706820F0020040F097
:103EB0000100706004E0706840F01000706001253F
:103EC0002846F2BDF8B50646002406F150050F4617
:103ED00000942978012901D10220F2BD0120287027
:103EE00031688868400700F15C817868062811D243
:103EF000801E03280CD8DFE800F0020406080C201E
:103F000007E0122005E0182003E04FF4807000E085
:103F1000062078607968326838688B09303203F09F
:103F20000C039A1801F01F01D2F800C01F238B4028
:103F3000C0F384602CEA030300FA01F11943116015
:103F4000306882688168520720D409071ED4BA6895
:103F50003968FFF7DFFE3068C1683A69042A16D075
:103F600060303B6800EB820C9A48DCF8002002408D
:103F700003F0F8431343C9087A69480000F00600CB
:103F80008240134343F00043CCF8003076E0002138
:103F9000FFF7B0FE40033068214604D1FFF7AAFEC8
:103FA000C0F3846003E0FFF7A5FE00F01BF9396859
:103FB0004A030EBFC1F3846191FAA1F1B1FA81F114
:103FC000884204D1306800220021FFF79AFE00F0F9
:103FD00016F9400304D100F012F9C0F3846003E045
:103FE00000F00DF900F0FEF839684A030EBFC1F386
:103FF000846191FAA1F1B1FA81F1884204D130686B
:1040000000220121FFF77DFE00F0F5F8400304D106
:1040100000F0F1F8C0F3846003E000F0ECF800F089
:10402000E1F839684A030EBFC1F3846191FAA1F146
:10403000B1FA81F1884204D1306800220221FFF7F1
:1040400060FE00F0D4F8400304D100F0D0F8C0F3D3
:10405000846003E000F0CBF800F0C4F839684A034C
:104060000EBFC1F3846191FAA1F1B1FA81F18842E6
:1040700004D1306800220321FFF743FE31688868CD
:10408000C00747D4FA683B68D1F8B0C0DFF8A8E1B0
:1040900002F01802C3F312002EFA02F22CEA00001A
:1040A00013400343C1F8B030F868DFF8901188423C
:1040B00030D1386841030EBFC0F3846290FAA0F19A
:1040C000B1FA81F2521C012102F01F020A2A0DD21C
:1040D00000F09EF8920603F01F03401C02F0F84225
:1040E000994000F01F0000F077F80FE000F090F822
:1040F000401C920603F01F0300F01F0002F0F8427C
:1041000099400A3800F068F841F00071BA683068E8
:10411000FFF700FE3B68DFF82801034246D02A483B
:10412000DFF820710168DFF82021BB4201F0E07167
:104130001AD10B023AD43668964237D100F063F8B0
:1041400041F4000101601D481D4A0168B1FBF2F213
:10415000521C0C2042430092009800281EBF009879
:10416000401E0090F8D121E0DFF8E070BB4209D199
:10417000CB011BD43668964218D100F044F841F0C8
:1041800080710CE0DFF8C870BB420FD14B020DD438
:10419000366896420AD100F036F841F48001016099
:1041A00004E0686840F02000686001240020287066
:1041B0002046F2BDC0FFFF5FC0FFFF7F2C00002044
:1041C000400D0300080004500803045007C0F0FF2E
:1041D000FDBFFFFF00F0FF03114300EB400041EA89
:1041E0000051704790FAA0F0B0FA80F07047306844
:1041F0000321FFF77FBD30680221FFF77BBD3068E8
:104200000121FFF777BD026822F0E0721143704789
:10421000420306D1C0F38462C0F38463C0F38460B8
:1042200007E090FAA0F0B0FA80F2B0FA80F3B0FAAA
:1042300080F0521C5B1C7047FFFF070000007F40AE
:1042400000000880000052C700000450000084CB2A
:104250000100008038B5040001D1012032BD606A40
:1042600028B900F068F805D00021E16102E00020E3
:10427000206160610020A06204F15C05687820B9CB
:10428000002129702046FEF7EEFA0220687000F047
:104290004AF8E168B1F5E06F04D90020B1F5706F1C
:1042A00003D104E04FF4805001D00021A162616885
:1042B000A268237C01F4827102F404421143227D3E
:1042C00003F002031943A36902F001021143227FA4
:1042D00003F40073194394F8203002F038021143BC
:1042E000A26A03F080031943236802F400521143C9
:1042F0001960A16994F8242094F83430090C01F075
:10430000040102F010021143E26803F008031943AC
:1043100002F470621143084321684860002068601D
:104320000121697032BD2068016821F040010160FF
:10433000704704460D466068B0F5827F7047000004
:1043400038B5040009D004F17405696809B900F0B2
:104350001EF800F021F8012801D1012032BD606A69
:1043600008B100F02AF800F00AF821F02A01FFE76E
:10437000816000F01BF8BDE8324000F08AB9206887
:10438000416821F4904141602068816870470020B5
:1043900028702046FEF72ABB242169602068026845
:1043A000520852000260204600F018B820680168E8
:1043B00041F00101016020467047204600F006B937
:1043C000286800F1080151E8001F490800F10803BE
:1043D000490043E80010002870470000F8B5044683
:1043E00073482268734F1368A168034020690B4328
:1043F00061690343E0690B4303431360002551687F
:10440000E06821F4405101435160A36967498A4241
:104410001CBF206A03439668674826F4306633431E
:104420009360BA424FF40043644E2FD1366806F0D1
:104430000306032E37D8DFE806F0026F5C71012710
:10444000E169B1F5004F4FF6F07640F0868047B154
:10445000012F7AD0022F08D0042F79D0082F7AD0DC
:104460009DE001F0FEF800280FD061684A0802EBD9
:104470004002B2FBF1F0A0F11001B142F0D20640CF
:10448000C0F3420006432068C66089E04C4FBA4240
:1044900021D1366816F00C063CD0042E3CD0082EF4
:1044A00027D00C2E3AD010278A42C9D137B1022F1B
:1044B00008D0042F34D0082F35D070E001F0D1F8A7
:1044C00000286DD0626802EB4201884267D3130373
:1044D00083422AD263E03B4FBA420CD1366816F0D1
:1044E000300617D0102E17D0202E02D0302E15D027
:1044F000D9E70227D8E78A42D5D1366816F4406654
:1045000008D0B6F5806F07D0B6F5006FF1D0B6F5DC
:10451000406FECE70027C7E70427C5E70827C3E794
:1045200001F056F8CCE71846CCE7010E560816EB1A
:1045300000206941002301F0EDF9A0F54071224A05
:1045400091422CD22168C8602AE001F092F88AE7F3
:1045500001F03EF887E7184687E747B1012F16D0EC
:10456000022F07D0042F15D0082F16D017E001F026
:1045700078F8A8B1616800EB5100B0FBF1F0A0F150
:104580001001B1420BD2226880B2D06008E001F085
:1045900070F8EEE701F01CF8EBE71846EAE70125B2
:1045A00000206066A0662846F2BD00000080004042
:1045B000F369FFEF003801400024F4008810024046
:1045C000004400400048004000FD0F0090F8241017
:1045D000CA0706D502685368816A23F400330B4387
:1045E000536090F824108A0706D502685368C16AA0
:1045F00023F480330B43536090F824104A0706D508
:1046000002685368016B23F480230B43536090F8D6
:1046100024100A0706D502685368416B23F400434F
:104620000B43536090F82410CA0606D502689368BD
:10463000816B23F480530B43936090F824108A0617
:1046400006D502689368C16B23F400530B43936053
:1046500090F824104A0610D502685368016C23F4C0
:1046600080130B435360036CB3F5801F05D153686F
:10467000416C23F4C0030B43536090F824100A06E6
:1046800006D501684A68806C22F4002202434A6021
:104690007047F8B5044604F174050020E8606FF037
:1046A0007E4701F0E9F80646206801680A0708D548
:1046B0000097334600224FF40011204600F017F80F
:1046C00060B9206801684A070AD50097334600227E
:1046D0004FF48001204600F00AF808B10320F2BD33
:1046E00020206860A860002020662870F2BD2DE9B7
:1046F000F041069C05460E4690461F462868C16953
:104700003140B1420CBF01200020404529D114F1B5
:10471000010FF3D001F0B0F8C01B844200D34CB9B4
:1047200000F028F8FFF74CFEFCD100F01DF8002146
:10473000017014E0286801684A07DFD5C1690805DF
:10474000DCD52A684FF40061116200F013F8FFF71E
:1047500037FEFCD100F008F8C1600022027003208F
:1047600000E00020BDE8F08105F1740020214160E7
:1047700081607047286850E8001F024621F4D0711C
:1047800042E800100028F5D17047000038B5040059
:1047900001D1012032BD00F027F818B900F0BFF8B0
:1047A000FEF7EDF80BE038B5040001D1012032BD71
:1047B00000F01AF818B900F0B2F801F02EF9022052
:1047C0006870211D206800F0DAF801202873A870B5
:1047D000E87028716871A871E87128726872A8720F
:1047E000E8726870002032BD04F13C0568787047BB
:1047F00038B50446002594F83C00012801D1022078
:1048000032BD012084F83C0052B1042A0CD0082AA1
:104810000ED00C2A10D0102A12D0142A14D017E06F
:10482000206800F0D9F814E0206800F006F910E0E4
:10483000206800F032F90CE0206800F05DF908E033
:10484000206800F07AF904E0206800F09AF900E0AE
:10485000012500F001F832BD002084F83C00284614
:10486000704770B5064606F13C05002428780128FB
:1048700001D1022070BD0120287002226A70DFF889
:10488000E00332689368034093600868020018BF31
:10489000102830D0202818BF30282CD0402826D00F
:1048A000502819D060281BD0702806D0B0F5805F42
:1048B00027D0B0F5005F07D022E000F02BF8306879
:1048C000816841F0770105E000F024F830688168E4
:1048D00041F48041816014E000F018F850210BE0B1
:1048E000CA684968306800F0DAF9602104E000F035
:1048F0000DF8402100E00146306800F0E2F900E0E8
:1049000001240120687000F00AF870BDCA68496887
:104910003068B5E1CB684A6889683068D9E1002120
:1049200029702046704738B500F00CF801D10220FC
:1049300032BD00F00DF800B110E02868C16821F028
:10494000400110E0054605F13C042078012870473D
:10495000012020700222627028463AE10120607036
:104960000021217032BDC1602868C16821F48041F6
:10497000C1600120607000212170002032BD70B53F
:10498000B84E0368B84CB94DB04218BFB0F1804F73
:1049900001BF23F070034A681343B04205D0B0F161
:1049A000804F1CBFA842A04203D1CA6823F44073C1
:1049B00013434A6923F0800313430360B0428B68BA
:1049C000C3621CBFA842A0420A68826201D1096981
:1049D00001630122426170BDF0B5026ADFF884C252
:1049E000A24F520852000262046A45688669A04AD2
:1049F0000B6816408A6824F002041E4314439A4B45
:104A000060451CBFB842984209D1CA6824F0080426
:104A10001443604518BFB84224F0040401D0984202
:104A200005D14B698A6925F440751D4315434560DE
:104A30008661496841630462F0BD70B5026A22F084
:104A400010020262036A446885698A4A0E6815404A
:104A500045EA06258A68834E23F02003B04243EAE4
:104A6000021307D1CA6823F0800343EA021323F03C
:104A7000400305E07D4A90421CBF7B4EB04206D108
:104A80004E698A6924F44064164344EA860444600B
:104A9000856149688163036270BD70B5026A744BB9
:104AA00022F480720262046A4568C6690A681E4080
:104AB00016438B686B4A24F40074904244EA032442
:104AC00007D1CA6824F4006444EA022424F4806410
:104AD00005E0664A90421CBF634B984206D14B6981
:104AE0008A6925F44055134345EA03154560C661BC
:104AF0004968C163046270BD70B5026A22F48052D5
:104B00000262056A4368C4695A4A00F05BF825F4FA
:104B1000005545EA0235B0421FBF544A9042524EFA
:104B2000B04204D14A6923F4804343EA82134360CC
:104B3000C46149680164056270BD70B5026A4E4B7C
:104B400022F480320262066A4468456D0A681D409C
:104B500015438B68434A26F4003646EA03469042E2
:104B60001FBF424B9842404A904204D14A6924F404
:104B7000803444EA022444604565496881650662E0
:104B800070BD70B5026A22F480120262056A436841
:104B9000446D3A4A00F016F825F4001545EA02552E
:104BA000B0421FBF314A90422F4EB04204D14A69F1
:104BB00023F4802343EA8223436044654968C16546
:104BC000056270BD0E68144044EA06248A68254ECA
:104BD000704770B50068214B86684C680A6826F0FB
:104BE000700626431E401643866000254C68002C44
:104BF00018BF102C2FD0202C18BF302C2BD0402CBD
:104C00000BD0502C1CD0602C1FD0702C22D10B69E3
:104C10008A68C96800F05DF81DE00A68052A01D1BC
:104C2000012070BD026A036A5B085B00036283694E
:104C3000096923F0F00343EA0113836102620AE089
:104C40000A69896800F01CF805E00A69896800F0C3
:104C500026F800E00125284670BD0000F8FFFEFFA1
:104C60008800FEFF002C014000440140004001404C
:104C70008CFFFEFFFF8CFFFE8FFFFEFFFF8FFFFE0E
:104C800010B5036A046A64086400046223F00A032E
:104C9000846924F0F00444EA0214846123E010B52E
:104CA000036A23F0100303628369046A23F47043E8
:104CB00043EA023324F0A004836144EA011404624D
:104CC00010BD826822F07002114341F0070181603B
:104CD000704710B5846824F47F442143114341EAAE
:104CE0000321816010BD1943016210BDF0B500F1D0
:104CF0003C042278012A01D10220F0BD0122227059
:104D0000022363700568DFF8C0C06E68AF68654550
:104D100003D14B6826F470061E430A6826F070061D
:104D200016436E60026862451EBFB2F1804F28488C
:104D3000824204D1886827F08007074397600121E9
:104D4000617000202070F0BD10B590F83C20012A61
:104D500001D1022010BD012280F83C20CC688B6874
:104D60004A6824F440741C4324F4806414430B68A0
:104D70000A6924F400641C4324F4805414434B69EE
:104D80008A6A24F400541C4324F4804414438B693D
:104D90000E4A24F4702444EA0344036893420CD17D
:104DA0004A6A24F4700444EA0254CA69096A24F085
:104DB0008074144324F000740C435C64002280F877
:104DC0003C20002010BD0000002C0140002C0140C0
:104DD000004001406C4900200870704738B5002041
:104DE00000F052FE0025012809D1002000F014FD3A
:104DF000012808BF00F0E6FC002000F059FE624CDC
:104E00002078082845D8DFE800F005304551449166
:104E10009DA08F0000F08EFE00F0A4FC01F0D0F801
:104E2000002001F087F8012805D0002000F0B6FF2F
:104E3000062000F0B3FF012001F07CF801281CBF20
:104E4000012000F0ABFF012000F0E8FD00B10125DA
:104E50000120FDF7B3FE00B1012501F05BF9002848
:104E60000ABF002D0820012012E001F02BFA0620D5
:104E700001F006F801F00BFD002814BF012501F038
:104E80007FFD02F078FA00280ABF002D08200220DA
:104E9000207031BD032000F0F7FD0128F9D1032077
:104EA00000F006FE01F0E4F80320F1E701F057F905
:104EB000012000F0B1FC012805D1082002F0A2FC7D
:104EC000012000F0B7FC012000F0DEFD012808BF42
:104ED00000F0EEFD022000F0D7FD012808D10220ED
:104EE00000F0E6FD02F038FD01F022FA01F070F961
:104EF000032000F0C9FD012808D1032000F0D8FDEF
:104F000000F0C0FE01F0B4F801F093FD042000F0C1
:104F1000BBFD012804D1042000F0CAFD02F002FE0E
:104F200001F00CFC0928B4D10520B1E701F017F914
:104F300001F0FEF901F002FC0928AAD101F0DAFC27
:104F40000720A5E70521217031BD022002F004FEF3
:104F500001280CD1BFF34F8F0C490D480A6802F4A9
:104F6000E06202430A60BFF34F8F00BFFDE70220FB
:104F700000F08AFD01288CD1022000F099FDBDE8E7
:104F8000314002F0E9BC0000D60900200CED00E041
:104F90000400FA05DFF87400006800F4C060704790
:104FA00010B5DFF86810B0F5007F086800F4C06045
:104FB00019D1B0F5007F1FD00868DFF85420DFF862
:104FC000544020F4C06040F4007000F017F800E096
:104FD000401E4A69530501D50028F9D148694105A9
:104FE0000AD5032010BDB0F5806F05D0086820F405
:104FF000C06040F480600860002010BD086032206E
:1050000013684343B3FBF4F0401C7047007000404A
:105010002C00002040420F002DE9FC47050065D020
:10502000DFF8FC76DFF80867BC68F86800F0030872
:105030002878C10604F00C0448D524B10C2C08BF14
:10504000B8F1010F2CD13868810702D5A869002872
:105050004CD0396808074EBF396871680909286A59
:1050600001F0F001814206D200F020FB00283DD182
:1050700000F012FA07E000F00FFA24B9286A00F0F5
:1050800015FB002832D100F0A3FABA6800F096FAB6
:10509000DFF89406006800F0F5FB010016D0F5E19A
:1050A000A86928B3396841F00101396000F0E4FBD8
:1050B00081463868810707D400F0DEFBA0EB0900C9
:1050C0000328F6D30320E1E100F0E6F92878C107D0
:1050D00056D5082C04D00C2C08BFB8F1030F18D1FA
:1050E000386881034CD56868002849D10120CDE19A
:1050F000386840084000386000F0BEFB81463868E0
:105100008107E3D500F0B8FBA0EB09000328F6D334
:10511000D8E76868B0F5803F04D1386840F4803043
:10512000386011E0B0F5A02F386806D140F4802037
:105130003860396841F4803105E020F4803038600F
:10514000396821F480213960686860B100F094FB0F
:1051500081463868810313D400F08EFBA0EB090070
:105160000B28F6D3AEE700F087FB81463868810351
:1051700006D500F081FBA0EB09000B28F6D3A1E7D0
:105180002878810713D5042C04D00C2C08BFB8F163
:10519000020F22D13868410502D5E8680028A5D061
:1051A0007868296920F0F85040EA01607860287832
:1051B000010743D568690028706830D040F00100CD
:1051C000706000F059FB80467068810736D400F0AB
:1051D00053FB00F05DF9F7D374E7E86878B13968FC
:1051E00041F48071396000F047FB80463868410522
:1051F000D6D400F041FB00F04BF9F7D362E73868F2
:1052000020F48070386000F037FB80463868410534
:10521000CDD500F031FB00F03BF9F7D352E7400861
:105220004000706000F028FB80467068810705D55B
:1052300000F022FB00F02CF9F7D343E72878410770
:1052400067D5B86DC1004FF000080AD4B86D40F0C2
:105250008050B8654FF00108B86D00F080500090A4
:105260000098DFF8D094D9F80000C10513D4D9F81C
:10527000000040F48070C9F8000000F0FDFA82469A
:10528000D9F80000C10506D400F0F6FAA0EB0A0038
:105290000328F5D316E7A868012804D1306840F048
:1052A0000100306010E00528306806D140F00400AD
:1052B0003060316841F0010105E040084000306095
:1052C000316821F004013160A86841F2893960B188
:1052D00000F0D2FA82463068810713D400F0CCFA8D
:1052E000A0EB0A004845F6D3ECE600F0C5FA82468A
:1052F0003068810706D500F0BFFAA0EB0A004845E8
:10530000F6D3DFE6B8F1000F03D0B86D20F080507F
:10531000B8652878810621D5686A0028B0680ED063
:1053200040F00100B06000F0A7FA8046B068810745
:1053300014D400F0A1FA00F0ABF8F7D3C2E64008AD
:105340004000B06000F098FA8046B068810705D54B
:1053500000F092FA00F09CF8F7D3B3E6A86A0028B0
:1053600000F09380022871D1F868EA6A00F0030126
:10537000914201BF00F070012A6B521EB1EB021F77
:105380001BD16A6B00F4FE41B1EB022F02BF00F0AB
:105390007841AA6BB1EBC26F0FD1EA6B520800F4EF
:1053A000C001521EB1EB425F07D1296C490800F0E1
:1053B000C060491EB0EB416F44D00C2C47D0386818
:1053C00041013FF593AE386820F08070386000F0FE
:1053D00053FA04463868810105D500F04DFA001BE8
:1053E0000328F7D36EE6F868DFF84C13EA6A084042
:1053F000296B1043491E40EA0110EA6B696B5208A1
:1054000040EA0120296C521E490840EA4250491ED8
:1054100040EA4160A96B40EAC160F860386840F03A
:1054200080703860F96841F08071F96000F024FA0A
:1054300004463868810128D400F01EFA001B0328B6
:10544000F7D33FE6386881011FD4E7E70C2C3FF41F
:105450004DAE386820F0807038603968080103D498
:10546000F96889088900F960F968DFF8D00201401D
:10547000F96000F001FA04463868810105D500F0B2
:10548000FBF9001B0328F7D31CE60020BDE8F687D4
:10549000A0EB080003287047386840F00800386027
:1054A0003968286A21F0F001014339607968E869B8
:1054B00021F47F4141EA0021796070472DE9F041F4
:1054C0000400884658D0DFF87862306800F00700A2
:1054D000404509D23168C90848EAC10131603068E5
:1054E00000F00700404547D12078DFF83452C1076B
:1054F0002AD56068032802D129688A0108E00228B9
:1055000002D129688A0303E00028296802D18A07AA
:1055100002D431E04A052FD5A968890840EA810004
:10552000A86000F0A9F90746A868616800F00C00BF
:10553000B0EB810F08D000F09FF9C01B41F2893118
:105540008842F1D3032037E02078810705D5AA6887
:10555000A06822F0F0020243AA60316801F007015E
:1055600088450BD23068C00848EAC0003060316816
:1055700001F00701414501D001201DE020784107DD
:1055800005D5AA68E06822F4E0620243AA602178A7
:10559000080706D5A968206921F4605141EAC001D5
:1055A000A96000F015F8AA6800F008F8BDE8F0411D
:1055B0005D48006800F066B9BDE8F0816149C2F35A
:1055C0000312895C574A01F01F01C8401060704700
:1055D00070B5534A5D4B9068D6680025002110F0E5
:1055E0000C0006F003065A4C03D00C2812D1012EF1
:1055F0001AD115682E0704D44C4D2E68C6F3032526
:1056000002E01568C5F30315524E56F8255048B907
:10561000294624E0042808BF214620D008281ED1AE
:1056200019461CE00C281AD1D06800F003000228AB
:1056300003D0032808BF1D4600E02546D168D06886
:10564000D268C0F306204543C1F30210C2F34161A2
:10565000401C491CB5FBF0F04900B0FBF1F10846D5
:1056600070BD3048384A006813683B49C3F30222D2
:1056700006E02C48344A006813683749C3F3C22255
:10568000895C01F01F01C84070472548016841F45A
:1056900000210160704710B5304C2068C10504D569
:1056A00002F0D6FF4FF48070606010BD7CB52C4EC8
:1056B000054630680024C10002D5FFF76BFC0EE000
:1056C000306840F080503060316801F080510091C6
:1056D0000098FFF75FFC316821F080513160B0F530
:1056E000007F04D1802D0CD9A12D09D304E0802D99
:1056F00088BF032405D801D1022402E0702D00D117
:1057000001240F480168C90844EAC101016000682A
:1057100000F00700A04201D0012076BD002076BD38
:10572000001002402C0000200800002094100240CD
:1057300090100240007000408C809D01FFFFEEFE43
:105740000020024084A500080810024000127A00E0
:105750000024F400D8A40008F4A500081C1002409E
:105760005810024030B585B0142200216846FEF77B
:1057700015FA3F4C3F4D002020804FF48811062041
:105780000022009001912271029269462846FDF79D
:1057900065FE002200210720FDF7E8FF0720FEF745
:1057A00003F8002200210820FDF7E0FF0820FDF7A4
:1057B000FBFF02212846FDF792FF012808BFA070D9
:1057C00005B030BD70B52A4C2A4E2179002559B15B
:1057D00004213046FDF783FF00B1012561788D4239
:1057E00018BF657000202071607990B102213046A9
:1057F000FDF775FF00B10120A278904205D0E17954
:105800000429ACBFA070491C02DB0020607100219C
:10581000E1710020207070BD154918B1022805D033
:1058200002D305E008787047487870478878704759
:105830000020704701000E4A03D0022807D003D38E
:1058400008E00020107070470021517002E0002134
:1058500091707047002070470549012202280A70A4
:1058600003D0042802D10A7170474A7170470000C2
:10587000A40A00200004004801484068704700BFA7
:105880000000002070B50E4E044630780025A0B10F
:105890004FF47A710B4AB1FBF0F11068B0FBF1F0F4
:1058A000FDF79CFF48B9102C07D2002221464FF08B
:1058B000FF30FDF75BFFB46000E00125284670BDB6
:1058C000000000202C000020F0B5044600201F2519
:1058D0002B465D1E2BB105F01F0321FA03F6F707D7
:1058E000F6D5130007D0082A10D0102A0BD0182A9A
:1058F0000ED1072D0CD223685961996821F0180147
:105900000A439A60F0BD082DF5D301E0102DF2D3C3
:105910000120F0BDD3BBD9B1B2F5803F5BD2022AE2
:105920001ED98C46B1FBF2F102FB11C31B0443EA02
:105930001043B3FBF2FC02FB1C3380B240EA03438A
:10594000B3FBF2F002FB103240EA0C400023704738
:10595000022A05D98446B0FBF2F002FB10C2704760
:105960004AB105D100F0010249085FEA30007047F2
:1059700000220023704702F06DBE0B0002000021E0
:1059800000207047F7D3002200237047904271EB4C
:10599000030CF2D370B5B1FA81F4B3FA83F52C1B82
:1059A000A340C4F1200532FA05F63343A2405FF06C
:1059B0000046E64002E05B085FEA3202841A71EBBF
:1059C000030524BF204629467641F4D302000B008C
:1059D0003000002170BD70B5B1FA81F4B2FA82F5E1
:1059E000C4F120046419B4F12006DAD3B2405FF0A8
:1059F0000044F440002502E052085FEA3303C61A6F
:105A000071EB020E24BF3046714664416D41F3D301
:105A100002000B002000290070BD704738B500243B
:105A20000128424D22D1424828614FF6FF714FF4C0
:105A30006060A86169622C602C71AC602C736C6131
:105A40002C636C63AC63EC632C6405F1100002F012
:105A500003FEA8B905F1100002F0D7FE80B94FF49B
:105A6000BE7105F1100002F093FE08E005F1100090
:105A700002F0CBFE20B905F1100002F050FE00B19B
:105A80000124204632BD0000014600200429274A97
:105A90000DD8DFE801F00B0305070900907A704785
:105AA000D07A7047507A7047107A7047107B7047F1
:105AB00004281E4A12D8DFE800F00F0306090C0084
:105AC0000020907270470020D07270470020507202
:105AD0007047002010727047002010737047134801
